:100000000C944D020C9494020C9494020C94E60C03
:100010000C9494020C9494020C9494020C94940208
:100020000C9494020C9494020C94941E0C94681FEB
:100030000C949D190C9494020C9494020C949402C8
:100040000C9494020C9494020C9494020C949402D8
:100050000C9494020C94F4190C9494020C94940251
:100060000C9494020C9494020C9494020C949402B8
:100070000C9494020C9494020C9494020C949402A8
:100080000C9494020C9494020C9494020C94940298
:100090000C9494020C9494020C9494020C94940288
:1000A0000C9494020C9494020C94940245001E004B
:1000B0001F0020002100220035002B0014001A0030
:1000C0000800150017002F00E000040016000700CC
:1000D00009000A00035829001D001B000600190032
:1000E0000500E1000000000000006544E3002A0074
:1000F00028642E002D002700260025002400230060
:100100003100130012000C0018001C0030003400F5
:1001100033000F000E000D000B00015829003800BD
:1001200037003600100011002C0000000000000015
:100130000755E3004C42287427021F022F003000AD
:100140001C0109000C0001000F00120052001500F4
:1001500017000B0001001300500051004F000A006F
:10016000010001001D011B000600190005000E72B0
:1001700000000000000001002C000100010001004F
:100180000100010001000100010001000100010067
:100190000100010001000100010001000100010057
:1001A0000100010001000100DA5C01000100010012
:1001B000010001000100000000000000010001003A
:1001C0000100010045003A003B003C003D003E00BC
:1001D000460001001E001F00200021002200350201
:1001E0000100010001000100AA00A90001533D0423
:1001F0001E021F022002210222023900000000001C
:1002000000000100010001000100B30044004300B0
:100210004200410040003F00310223022700260037
:100220002500240023004A004D004F0052005100D9
:100230005000035330022F02270226022502240217
:10024000AE00000000000000AC00AB0001000100A7
:100250000100010001000100010001000100010096
:100260000100010001000100010001000100010086
:100270000100010001000100010001000100010076
:100280000100010001000100000000000000010069
:1002900001000100010054005500610060005F0092
:1002A000B2005300560057005E005D005C002A005B
:1002B0000100200258005B005A0059004C00010068
:1002C0006700580063003600620001000100000072
:1002D0000000000001000100010001000100010018
:1002E0000100010001000100010001000100010006
:1002F00001000100010001000100010001000100F6
:100300000100010001530100010001000100010092
:1003100001000100000000000000010001000100D8
:1003200001000100010001000100010001000100C5
:1003300001000100010001000100010001000100B5
:100340000100010001000100010003530100010050
:100350000100010001000100010000000000000098
:1003600001000100010001000E03500069006E0051
:100370006B007900340000001403740061006D000C
:1003800061006E00690073006800690000000403EA
:10039000090409023B00020100A0FA09040000015F
:1003A000030101000921110100012240000705811C
:1003B0000308000A090401000103000000092111DB
:1003C000010001227B000705820320000A120110B0
:1003D00001000000084E54347001000102000105C4
:1003E000010902A10185020901A1000509190129DC
:1003F00008150025019508750181020501093009DC
:10040000311581257F9502750881060938158125EA
:100410007F950175088106050C0A38021581257F34
:10042000950175088106C0C005010980A1018503F9
:1004300019012AB700150126B70095017510810032
:10044000C0050C0901A101850419012AA0021501AA
:1004500026A002950175108100C005010906A101C1
:10046000050719E029E715002501950875018102A6
:100470009501750881010507190029FF150026FF60
:10048000009506750881000508190129059505756F
:10049000019102950175039101C011241FBECFEF98
:1004A000DAE0DEBFCDBF04B603FE27C08091830231
:1004B00090918402A0918502B09186028730904B82
:1004C000A740B04BD1F41092830210928402109294
:1004D00085021092860214BE84B7877F84BF0FB650
:1004E000F894A895809160008861809360001092D4
:1004F00060000FBEE0E0F8E3099511E0A0E0B1E094
:10050000ECE8F3E402C005900D92A239B107D9F7E7
:1005100022E0A2E9B1E001C01D92A338B207E1F7E1
:100520000E94D01B0C949C210C9400000C94950507
:100530000C9496050C94A0020C94540381E0089549
:1005400081E0089508950C94A2021F93CF93DF9346
:1005500000D000D00F92CDB7DEB749835A836B83AA
:100560003091CF0189819A8131111DC06623B9F084
:100570002223A9F00E94D716182F682F89819A810B
:100580000E94831669817A81812F0F900F900F90BE
:100590000F900F90DF91CF911F910C9465030E94F3
:1005A000AF16182FEFCF0E94D71669817A81EDCF51
:1005B000FC01262F408151816281738184810C94DA
:1005C000A502CF93DF93EC0160E00E94D802BE0148
:1005D000DF91CF910C94A3020E9471050C949602B6
:1005E0000C94980208950E94FF110E94F2022FEFCE
:1005F00084E39CE0215080409040E1F700C000007F
:100600000C94591A0F931F93CF93DF938C0161E0E1
:100610000E94D802EC01B8010E949A028823A9F135
:10062000B801CE010E94460A882379F1B801CE01B3
:100630000E94980A882349F1B801CE010E94BB0BA1
:10064000882319F1F8018281882361F0CB35FDE51B
:10065000DF0721F170F4C115ECE5DE07A1F0CF3D15
:10066000DC45C9F0C801DF91CF911F910F910C9427
:100670009E02CC358DE5D807A1F0CD35DD4591F74B
:100680000E947E17EFCF0E94F30280E0DF91CF91AE
:100690001F910F9108950E94F118F7CF0E948717BC
:1006A000E1CF0E948A17DECF089581E008950C946F
:1006B0005503CF93C82F0E949C028C2FCF910C948E
:1006C000570390E080E008950895972F70E027E0A9
:1006D000929F600D711D1124FB0196E4899FE00D2E
:1006E000F11D1124EE0FFF1FE455FF4F85919491EA
:1006F0000895FC01EE0FFF1FE859FC4F859194917E
:100700000895CF93DF930E9465030E949604EC0145
:10071000811520E5920708F042C0811530E4930767
:1007200008F0BDC0883E910528F5803E910508F08F
:100730009DC0883A910588F4853A910508F08FC0EC
:100740008130910509F492C0009709F48FC0049795
:1007500008F08CC0D0E0C0E089C08F3B910508F460
:1007600089C0805C9109C03CD105A0F30E94790347
:10077000EC017CC08115904250F4C11581E0D8078E
:1007800008F074C0CD3ED10528F3D0656FC0C11507
:1007900090E3D90708F079C0CE019F70E7CF8115AB
:1007A00025E5920758F5811534E5930708F0A6C0B2
:1007B000811542E5940750F4C11581E5D80708F486
:1007C00071C0DC2FCC27C16FD06A50C0982F96958E
:1007D00096959E0123703327C115D34508F07FC03D
:1007E000C1E0D0E002C0CC0FDD1F2A95E2F720E285
:1007F000929FC0011124C82BD92B6FC0C11589E568
:10080000D807A8F4C11598E5D90708F07CC0C11530
:1008100026E5D20708F09ECF8C2F0E942D05C82F09
:10082000D0E0DC2FCC27CC27DF71D0621FC0C115F0
:100830003AE5D30708F46CC0CE019056811590427A
:1008400008F088CF8D2F8F710E942D0590E0982F92
:10085000882788279F719C012C2BE901E6CFC55A78
:10086000D0E0C45BDE4FC881D0E0D064CE01DF9120
:10087000CF910895C85AD0E0CC0FDD1FC25EDE4F85
:100880000990D881C02DD464F1CFCE019927D3FF30
:1008900003C0EC01D86CEACFEC01D06CE7CFDF707D
:1008A000D06AE4CFCE01E4E096958795EA95E1F72A
:1008B00083702C2F26952695237090E2299F900116
:1008C0001124382B8C2F8370C1E0D0E002C0CC0FF4
:1008D000DD1F8A95E2F7C22BD32BDC68C7CFC1E0BE
:1008E000D0E002C0CC0FDD1F2A95E2F730E2939FE3
:1008F000C0011124C82BD92BDA68B8CFD82FCC2748
:10090000C46FD06AB3CFDC2FCC27C06FD06AAECF14
:100910008C2F8F700E942D0534E0D695C7953A959F
:10092000E1F7CF709C2FEC01D069A0CF8238910500
:10093000B1F1B0F48133910509F475C048F48932FE
:10094000910509F469C08A32910509F473C00895CC
:100950008533910509F459C08933910501F1089552
:10096000833E9105A9F138F4803E9105F9F0823E6D
:10097000910549F10895863E9105A9F1873E9105BB
:10098000C9F1843E910519F52091570221FF1FC03E
:100990008091560284FD14C087EE90E00895209166
:1009A00056022370A1F080EE90E008952091560247
:1009B00020FD47C03091570230FF09C024FF44C0DA
:1009C00090E080E004C02091560222FDF7CF089508
:1009D0002091560222FD3BC03091570230FDE3CFFB
:1009E00024FFF5CFEDCF2091560223FFF0CF24FD59
:1009F000E7CFD2CF2091560223FD2CC03091570271
:100A000031FFEECF84EE90E008952091560225FF4D
:100A1000DECF89E290E008952091560225FFD7CFDE
:100A200085E390E008952091560226FFD0CF8AE218
:100A300090E008952091560226FFC9CF81E390E00F
:100A4000089589E390E0089583EE90E0089582EEA2
:100A500090E0089586EE90E008959091560292FFFE
:100A600006C0282F28712830F9F4877F846093FF0F
:100A700006C0282F28712831F1F4877E84612091E7
:100A8000570220FF06C0382F38713830D9F4877FDD
:100A9000816021FF06C0282F28712831D1F4877E7C
:100AA000816194FD877E0895282F24712430F9F602
:100AB0008B7F8860DCCF282F2471243101F78B7E57
:100AC0008861DDCF382F3171313019F78E7F886022
:100AD000E0CF282F2171213121F78E7E8861E1CF6F
:100AE00008950E944C18811102C00E94F1180E94C2
:100AF000571880934A020E945F1890935702809380
:100B000056020E9470050E945B18682F70E090E00A
:100B100080E00E94851560913502709136028091C7
:100B20003702909138020C94BF1508950895E82F6C
:100B3000F0E0EE59FD4F80810895089580EA8A958E
:100B4000F1F7089500C008950C949E05F894E82FDD
:100B5000E295EF70F0E031A1282F2F7081E090E056
:100B600001C0880F2A95EAF7982F9095932391A3B7
:100B700092A1892B82A37894089508950C94BD05C1
:100B8000CF93DF930E943E07809100018091000186
:100B900095E0811190E090936D0285E0891B809330
:100BA0006C0284E90E94A60586E60E94A60587E9F4
:100BB0000E94A60586EC0E94A60584E30E94A60575
:100BC000CFE4D1E089910E94A60581E0C635D8071F
:100BD000C9F7E8E5F2E0A2E6B2E011921D9282E0E8
:100BE000E236F807D1F785E00E94ED060E94EC029C
:100BF000DF91CF910C944807FF920F931F93CF93EF
:100C0000DF9300D000D00F92CDB7DEB70E9424074B
:100C1000F82E60916D02882309F450C08E010F5F99
:100C20001F4F85E0F80111928A95E9F7862F90E031
:100C3000B8018E599D4F0E94F10B811122C0809105
:100C400094018F5F809394018630B0F1E0916C0243
:100C5000F0E0EE59FD4FD801CE01069611921D929B
:100C6000A817B907D9F70E94F0028F2D0F900F90A7
:100C70000F900F900F90DF91CF911F910F91FF90E8
:100C8000089510929401A0916C02B0E0AE59BD4F4E
:100C90009E012A5F3F4FF12C4D91F80191918F01F8
:100CA000491731F0AD0141505109FA019083F82EF6
:100CB0000217130789F7D7CFF12CD5CF70E06E5903
:100CC0007D4F80916C0290E08E599D4F0E94180CD0
:100CD0000E94BE05CACFCF92DF92EF92FF920F9390
:100CE0001F93CF93DF9306E511E088E5E82E82E0BD
:100CF000F82EC0E0CC24C394D12CF80181918F014F
:100D0000F894E82FE295EF70F0E021A18F70A60132
:100D100002C0440F551F8A95E2F7CA01922F982B03
:100D200091A392A18095892382A378940E94A20521
:100D3000EFE4F1E030E020E0D0E04191A42FA29573
:100D4000AF70B0E090968C9190E04F7002C0959596
:100D500087954A95E2F780FD3CC08C2D022E01C09C
:100D6000880F0A94EAF7D82B2F5F3F4F27303105C1
:100D700021F7F801319780810E94A6050E94A40501
:100D8000F7018081D81739F1D08381E0C82BFFEFBC
:100D9000EF1AFF0A41E00B35140709F0AECF60915E
:100DA0006D0270E06E597D4F2C2F45E088E592E092
:100DB0000E94EE060E94FC05C11101C0C82F8C2FB5
:100DC000DF91CF911F910F91FF90EF90DF90CF9027
:100DD000089580E0C8CF80E0D9CF0895FF920F93A7
:100DE0001F93CF93DF93F82E092F162FD72FC42FE1
:100DF000222349F081E0809397010E94CD199093BE
:100E0000960180939501809197018823A1F08091AC
:100E10009501909196010E94E519069760F0EF2DDB
:100E2000F02FA12FBD2FCE0FDF2FD11DEC17FD0707
:100E300041F410929701DF91CF911F910F91FF9094
:100E4000089581918D93F2CF80919801811107C00F
:100E50000E941F21882351F081E08093980181E056
:100E600090919801913009F080E0089582E080939C
:100E700098010E941A21F3CF0C9424070E943C078A
:100E8000809300010E94240781110C94E50B0895C2
:100E90000E942407811102C00C94EB0B08958091ED
:100EA0009F0180FF12C06091060185E0689FB0013C
:100EB0001124759567957595679560387105A8F546
:100EC00061157105A1F1862F089581FF09C0609118
:100ED000060185E0689FB001112475956795EDCFF7
:100EE0006091060182FD0AC080919E018823D1F0A5
:100EF0009091050160910601891728F085E0689FAF
:100F0000B0011124DACF869FB001112485E0869FBD
:100F10009001879F300D1124692F70E0C9010E9454
:100F20002C21CBCF65E070E0CECF8FE7089581E034
:100F3000089580919F0180FF0CC06091020170E0D4
:100F400075956795759567956115710549F1862FBA
:100F5000089581FF06C06091020170E07595679564
:100F6000F3CF6091020182FD0BC090919D01992306
:100F7000A1F06091010180910201961738F0682F6D
:100F800070E06038710500F38FE70895899FC00114
:100F9000112470E00E942C21F4CF61E070E0D7CFE3
:100FA00081E008958D3E31F40E944F078195809332
:100FB000A30108958E3E19F40E944F07F8CF8F3E8B
:100FC00031F40E944F0781958093A2010895803FDC
:100FD00019F40E944F07F8CF893F29F40E9499071E
:100FE0008093A40108958A3F21F40E949907819576
:100FF000F7CF8B3F31F40E94990781958093A5012B
:1010000008958C3F19F40E949907F8CF9FE0980F3C
:10101000983070F4815F990B21E030E001C0220F1D
:101020008A95EAF78091A101822B8093A10108950E
:101030008D3F31F480919F01816080939F010895DD
:101040008E3F21F480919F018260F7CF8F3FB9F7E7
:1010500080919F018460F1CF4091A2018D3E59F4AF
:101060008091A30187FF0DC01092A30141110BC015
:1010700010929E0108C08E3E81F48091A301181643
:101080009CF3442381F08091A4019091A501892BC8
:1010900009F05AC010929D0108958F3E49F447FF10
:1010A000F0CF1092A2018091A3018111ECCFE0CF8B
:1010B000803F19F41416ACF3E4CF9091A401893F5A
:1010C00029F41916F4F61092A401DBCF8A3F19F423
:1010D00097FFD7CFF8CF9091A5018B3F29F497FFC9
:1010E000D0CF1092A501CDCF8C3F19F41916CCF3B7
:1010F000C8CF9FE0980F983090F4815F990B21E062
:1011000030E0B90102C0660F771F8A95E2F7CB0184
:1011100080959091A10189238093A101B2CF8D3F49
:1011200031F480919F018E7F80939F01AACF8E3FE3
:1011300021F480919F018D7FF7CF8F3F09F0A1CFE0
:1011400080919F018B7FF0CF08950E94CD199C0163
:101150009091A2018091A301982B21F030939C01E2
:1011600020939B019091A4018091A501982B21F0DF
:1011700030939A012093990180EA91E00C94A10D9B
:10118000EF92FF920F931F93CF93DF9300D000D085
:1011900000D0CDB7DEB786E0E0EAF1E0DE011196DF
:1011A00001900D928A95E1F7E090A201F090A301E1
:1011B0000091A4011091A5011092A2011092A30127
:1011C0001092A4011092A5018E2D8F2991F080918B
:1011D0009B0190919C010E94E519AC0190919E01A8
:1011E000992309F43FC0809107018417150608F47C
:1011F00047C0802F812B91F08091990190919A01A5
:101200000E94E519AC0190919D01992309F477C0E2
:10121000809103018417150608F47FC08091A20114
:101220009091A301892B9091A401892B9091A50104
:10123000892B11F00E94A50886E0FE013196A0EAF4
:10124000B1E001900D928A95E1F726960FB6F894D9
:10125000DEBF0FBECDBFDF91CF911F910F91FF90E9
:10126000EF900895209108018AE0289F90011124B1
:101270002417350708F0BDCF9F5F90939E0102C0F1
:101280009F3FD1F7EE2059F00E944F079FEF1E14A9
:101290000CF491E0899F802D11248093A201FF20FE
:1012A00059F00E944F079FEF1F140CF491E0899FA3
:1012B000802D11248093A3013091A201332309F4DE
:1012C00098CF2091A301222309F493CF45EB340357
:1012D000C0011124992359F09093A20145EB2403F6
:1012E00090011124332339F03093A30182CF81E0A0
:1012F0008093A201F3CF81E08093A3017ACF209164
:1013000004018AE0289F900111242417350708F072
:1013100085CF9F5F90939D0102C09F3FD1F700232F
:1013200059F00E9499079FEF10160CF491E0899FE5
:10133000802D11248093A401112359F00E94990754
:101340009FEF11160CF491E0899F802D112480935A
:10135000A5013091A401332309F460CF2091A501A8
:10136000222309F45BCF45EB3403C00111249923F8
:1013700059F09093A40145EB2403900111243323E9
:1013800039F03093A5014ACF81E08093A401F3CFD7
:1013900081E08093A50142CF86E0E0EAF1E0DF0141
:1013A0001D928A95E9F710929E0110929D0110926C
:1013B0009F0108950F931F93CF93DF93C42FD22FD4
:1013C000FC0182818823C9F04093A8010E94CD19B5
:1013D0009093A7018093A60180E28C0F883008F0DB
:1013E00050C0C77081E001C0880FCA95EAF7DF914D
:1013F000CF911F910F910C94860F1091A801141397
:1014000035C08091A6019091A7010E94E519883C02
:10141000910560F5C0E2CD0F1D17B9F080E2810F94
:10142000883040F4177081E001C0880F1A95EAF700
:101430000E948D0FC83048F481E09D2F977001C045
:10144000880F9A95EAF70E94860F802F0E947E0FE0
:10145000C830B8F4D77081E001C0880FDA95EAF798
:10146000DF91CF911F910F910C948D0F80E28C0F23
:10147000883038F4C77081E001C0880FCA95EAF758
:10148000EFCFDF91CF911F910F9108950F939C01A2
:10149000CB01243F4CE5340759F1A8F4293DFCE584
:1014A0003F0701F12A3D4CE53407D1F1283D3C4589
:1014B00091F406E221EE41EE68ED7CE50E94DA0946
:1014C00080E00F910895263FFCE53F07E9F0B0F07A
:1014D000273F3C45F9F0FC018281882339F11092C5
:1014E000A801EFCF07E225EE45EE69ED7CE5E6CFFA
:1014F00006E221EE40EE64EF7CE5E0CF07E225EE68
:1015000044EE65EF7CE5DACF06E221EE42EE66EFCF
:101510007CE5D4CF07E225EE46EE67EF7CE5CECF43
:1015200008E221E045EE6AED7CE5C8CF81E0C9CF55
:10153000CF93DF93EC01FB018281882309F419C169
:10154000C230FCE5DF07C0F1C6319CE5D90730F0B9
:101550009E012B5F3C452930310570F50E945F18D4
:101560009093570280935602C031ECE5DE0709F4F0
:10157000CFC008F05BC0C8308CE5D80709F4B6C00E
:1015800088F5C430ECE5DE0709F4A8C0C0F4C23029
:101590008CE5D80709F49CC0809156028260C33064
:1015A000DC4509F498C080915602909157020E9440
:1015B0006D180E94FF1180E0DF91CF910895809116
:1015C00056028061C630ECE5DE0709F484C08091E4
:1015D00056028860C730DC4508F47DC08091560211
:1015E000806279C0CC308CE5D80709F489C070F4EA
:1015F000809156028C60CA30ECE5DE0709F46BC0BE
:1016000008F478C0809156028E7F65C0CE308CE59C
:10161000D80709F479C0809156028B7FCF30DC4522
:1016200008F459C0809156028F7E55C0CC3FECE53E
:10163000DE0709F457C030F5C3318CE5D80709F44B
:101640006FC078F4C131ECE5DE0709F465C0C23142
:10165000DC4509F0A8CF0E94FF11809156028F77D8
:101660003AC0C5318CE5D80709F462C008F476C0E9
:10167000809157028160CB3FDC4509F094CF809385
:10168000570291CFC115FDE5DF0709F44DC088F47D
:10169000809157028D7FCE3F9CE5D90781F38091E1
:1016A00057028E7FCF3FDC4550F380915702836015
:1016B000E6CFC230FDE5DF0709F459C008F444C0A5
:1016C00080E0C330DD4509F06ECF0E94F3186BCF88
:1016D0008091560281608093560265CF80915602B8
:1016E0008460F9CF809157028260C9CF8091560201
:1016F0008064F1CF0E94FF11809156028068EBCF89
:10170000809156028D7FE7CF80915602877FE3CF8D
:10171000809156028F7DDFCF809156028F7BDBCF89
:1017200080915602837FD7CF809157028C7FA7CFBD
:101730008091560282FB992790F921E0922790FB35
:1017400082F990FB83F9C7CF80915702982F90952B
:1017500091708E7F892B90FB81F991CF0E94FF11B0
:1017600090915602892F97FB87F98058B4CF81E07A
:10177000ACCF81E021CFCF93DF93EB0186319C4545
:1017800011F50E948D179A81992399F08A7A91E038
:1017900009F490E09093A901811109C089E20E94A7
:1017A00047170E94DD1780E0DF91CF91089585E310
:1017B000F6CF8091A901811104C089E20E944E17E1
:1017C000F0CF85E3FBCF81E0EFCF61E070E089E00F
:1017D00091E00C94970C61E070E089E091E00C944A
:1017E0009E0CCF93DF93D62FC72F0E94380D009702
:1017F000E9F4ED2FFC2FDC01A155BE4F2C91219374
:10180000019685309105B9F70E943E1A6E5F7F4FB1
:101810008F4F9F4F6093AB017093AC018093AD01EC
:101820009093AE0181E0DF91CF91089580E0FBCFEE
:10183000CF93DF93D62FC72F6091AB017091AC018E
:101840008091AD019091AE010E94211AED2FFC2FE5
:1018500090E080E02191DC01A155BE4F2C930196D0
:1018600085309105B9F7DF91CF9108958EE14A9BBC
:1018700002C08150E1F74A9BFECF08955A9880E25A
:101880008A95F1F75A9A0895FC013BE03A95F1F7F1
:1018900098E020E080E031E040E14A95F1F7880FE0
:1018A0004A9B02C08160232742E04A95F1F700007D
:1018B00040E14A95F1F7915079F790E19A95F1F767
:1018C00099B132E03A95F1F7000040E14A95F1F71D
:1018D00092FB992790F992272081920F9083089587
:1018E000EF92FF920F931F93CF93DF930F92CDB799
:1018F000DEB719828C017C01E60EF11C0E151F0566
:1019000061F481E09981911180E00F90DF91CF9196
:101910001F910F91FF90EF9008950E94360CCE0119
:1019200001960E94440CF80181938F01E7CF9093B8
:10193000B5018093B401529A5A9A08959093B501D3
:101940008093B40152985A9AEA9AE9E6F0E08081CD
:101950008F7C808308956150770B91E001C0990FCF
:101960006A95EAF720E031E0911108C0222391F056
:101970005A9A80E28A95F1F75A980895492F482398
:1019800039F05A9A232740E24A95F1F79695ECCF21
:101990005A98F9CF5A98EDCFFF920F931F93CF9398
:1019A000DF93EC018C01060F111DC017D10731F434
:1019B000DF91CF911F910F91FF900895F9900E94B0
:1019C0003E0C68E08F2D0E94AB0CEFCF1F920F9260
:1019D0000FB60F9211242F933F934F935F936F9302
:1019E0007F938F939F93AF93BF93CF93DF93EF93A7
:1019F000FF935A98529AC091B401D091B5016D816C
:101A0000662321F08E819F810E94CC0C0E943E0CA7
:101A100080E18A95F1F75A9852985A9A80E18A950E
:101A2000F1F76A81662309F18B819C810E94700C19
:101A3000E881F981882311F088E001C082E0808389
:101A40000E94360CFF91EF91DF91CF91BF91AF9142
:101A50009F918F917F916F915F914F913F912F91C6
:101A60000F900FBE0F901F901895E881F981E4CF79
:101A7000CF93DF93C091B401D091B501F894529AFD
:101A80005A9885E08A95F1F7000052985A9A80E2B8
:101A90008A95F1F74A9B0CC0529A5A9AE881F981CB
:101AA00081E08083789481E090E0DF91CF91089588
:101AB0006D81662381F08E819F810E94700C81115F
:101AC0000AC0529A5A9AE881F98182E08083789418
:101AD00082E090E0EACF0E94360C80E28A95F1F72E
:101AE0005A98529A80E18A95F1F76A81662321F02B
:101AF0008B819C810E94CC0C0E943E0CE881F98174
:101B00001082789490E080E0D0CF9093BB018093D6
:101B1000BA010895E091BA01F091BB01309721F02C
:101B20000190F081E02D099480E00895E091BA01E0
:101B3000F091BB01309721F00280F381E02D0994F0
:101B40000895E091BA01F091BB01309739F022E09D
:101B5000DC012C930480F581E02D099408952091F7
:101B6000B8013091B9012817390771F09093B90184
:101B70008093B801E091BA01F091BB01309721F058
:101B80000680F781E02D099408952091B6013091E7
:101B9000B7012817390771F09093B7018093B60108
:101BA000E091BA01F091BB01309721F00084F185FA
:101BB000E02D099408950E94D9196093CB01709388
:101BC000CC018093CD019093CE016093C7017093B7
:101BD000C8018093C9019093CA01089585B78068B0
:101BE00085BF85B7806885BF0895089508950C94D2
:101BF000F50D08950C94F90D0E94EE0D8AE498E11C
:101C00000E946A1A0E94F60D0C94F70D0C9424079A
:101C1000089508950E94080E0C94090E0E94C4199C
:101C20000E94181A0E94C0050C94FA0DAF92BF9240
:101C3000CF92DF92EF92FF920F931F93CF93DF9398
:101C4000CDB7DEB72A970FB6F894DEBF0FBECDBF73
:101C50000E946B0681110E94DB0D8DEBA82E81E0A6
:101C6000B82E10E000E0C02E802F0E949705E82ECD
:101C7000F501F1905F01F81609F44DC080914A0218
:101C800081FD0E949D058F2D8E25D12CFF24F3947C
:101C9000982F9F21D9F10E94060E882399F0DE82A9
:101CA000CF82EF2081E009F480E088870E94CD197F
:101CB0008160782F9A8789874E815F8168858A85C0
:101CC0000E94B30EF801E354FE4F8081F826F082A3
:101CD0000E94C0080E948A0D9091BC01891791F161
:101CE0000E948A0D8093BC012A960FB6F894DEBF3D
:101CF0000FBECDBFDF91CF911F910F91FF90EF905D
:101D0000DF90CF90BF90AF900C945903D394FF0C09
:101D1000F7E0DF12BDCF0F5F1F4F0A30110509F04A
:101D2000A2CF8FEF89838A831B820E94CD198160A5
:101D3000782F9D838C8349815A816B818D810E948C
:101D4000B30EC6CF2A960FB6F894DEBF0FBECDBF36
:101D5000DF91CF911F910F91FF90EF90DF90CF9087
:101D6000BF90AF900895DF92EF92FF920F931F9371
:101D7000CF93DF93CDB7DEB72B970FB6F894DEBFC6
:101D80000FBECDBF7A878B87F42E052F162FE72E37
:101D9000D82E61110E94AD171E821D827E2DEC820D
:101DA000DD824F2D502F612F8D2D9E812B960FB6EA
:101DB000F894DEBF0FBECDBFDF91CF911F910F9181
:101DC000FF90EF90DF900C946314FC01808191816F
:101DD0000C941917CF93C82F882309F447C08CEFB0
:101DE0008C0F813AA0F46C2F809111019091120117
:101DF0000E940A19882329F08C2F0E944E170E94F6
:101E0000DD178C2F0E944717CF910C94DD1780E2CD
:101E10008C0F883048F4C77081E001C0880FCA95E4
:101E2000EAF70E949017F0CFEBE5EC0FE33040F4B7
:101E3000F0E0E257FE4F808190E0CF910C94AF0D1F
:101E4000E8E5EC0FE73150F4F0E0EE0FFF1FE05A49
:101E5000FE4F80819181CF910C94C50DCD3E30F025
:101E60008C2F0E94D207CF910C94A508CF91089592
:101E7000882361F19CEF980F913A20F40E944E174D
:101E80000C94DD1790E2980F983050F4877091E031
:101E900001C0990F8A95EAF7892F0E949617F0CF13
:101EA0009BE5980F933020F490E080E00C94AF0D08
:101EB00098E5980F973120F490E080E00C94C50DE0
:101EC0008D3E20F00E942C080C94A50808951F93C5
:101ED000CF93DF93182FEB010E94EA0E209731F485
:101EE000812FDF91CF911F910C94380F8FE99FE0E4
:101EF0000197F1F700C000002197F0CF70E060E09B
:101F0000893311F460E570E00C94670F882321F0A9
:101F10000E9490170C94DD170895882321F00E94E9
:101F200096170C94DD170895BF92CF92DF92EF922F
:101F3000FF920F931F93CF93DF936C01D62FC72F80
:101F4000FC011281058102950F700E946517E82E31
:101F50008823A1F0E12E112389F08C2F807F80341B
:101F600029F080E28D0FE12C883040F082E00E9461
:101F70002E180E94651791E0E82EE926BC2EB29437
:101F80009FE0B922EB2DF0E0E256FE4D0C9440218B
:101F90000C2F0F70C07F11F00295007F1123A9F064
:101FA000002359F080E28D0F883010F0D11109C064
:101FB000802F0E9490170E94DD178D2F0E94EA0E3D
:101FC00014C0802F0E94A017F6CF8D2F0E94380FCB
:101FD000002359F080E28D0F883010F0D1112CC011
:101FE000802F0E9496170E94DD172B2D2850330B4F
:101FF0002430310520F40E948A0D0E945903EE20FE
:1020000009F49EC10E94611780FD9AC1F6011282F7
:102010000E945B170E94E715C6010E94C1110E9431
:102020005B17DF91CF911F910F91FF90EF90DF90A1
:10203000CF90BF900C940816802F0E94A617D3CF84
:10204000FC2FFF70FF2EC07FC03219F0F29480EF9A
:10205000F822DD2369F0D13049F1112391F10023F9
:1020600051F1F601858180FFA8CF8F70858323C051
:10207000112381F0011106C00E94C0178F290E9410
:10208000860FB3CF0130C1F70E94C0178F290E947D
:10209000C617ABCF011106C00E94D3178F2D0E9427
:1020A0008D0FA3CF013009F4A0CFF6CF112329F073
:1020B000063008F09ACF8F2DE2CF053008F095CF8B
:1020C000EDCF002359F3D93349F4FFEF27EE33E086
:1020D000F15020403040E1F700C000008D2F0E94F9
:1020E000380F83CF8C2F86958695837069F0813069
:1020F00009F07BCF8D2F9C2F9370111102C090E0BF
:1021000080E00E94C50D71CF8D2F9C2F937011110F
:1021100002C090E080E00E94AF0D67CF8D2F1123A9
:1021200029F00E94D2070E94A5085FCF0E942C08C8
:10213000FACF8C2F837009F041C0111156CF4D2F6B
:10214000429546954770440F440F0D2F0F7010E0D5
:1021500030E020E0042E04C0000F111F221F331FA7
:102160000A94D2F760E070E0CB01D4FF0FC06FE0BB
:1021700070E080E090E004C0660F771F881F991F11
:102180004A95D2F76095709580959095C695C695BD
:10219000C370602B712B822B932BC23049F058F403
:1021A000C13019F00E94991520CF0E9487151DCFCC
:1021B0000E94AB151ACF0E94851517CF8695112363
:1021C00011F08C2F8170882309F40FCF4D2F429589
:1021D00046954770440F440F0D2F0F7010E030E00C
:1021E00020E0042E04C0000F111F221F331F0A9489
:1021F000D2F760E070E0CB01D4FF0FC06FE070E079
:1022000080E090E004C0660F771F881F991F4A95F1
:10221000D2F76095709580959095C695C695C370D8
:10222000602B712B822B932BC23049F058F4C130B4
:1022300019F00E945E16D9CE0E944C16D6CE0E948E
:102240007016D3CE0E94C115D0CECF70112329F0C5
:102250008C2F0E94E7158D2F12CF8D2F0E948D0F8E
:102260008C2F0E940816C1CED23F89F160F4D03F76
:10227000C9F0D13F29F1112309F442C001119DCECB
:102280008C2F8F7121C0D33F39F1D43FA1F7112397
:1022900069F1CF718C2F0E94E71563E08C2F0E94AB
:1022A0001318A3CE112341F0053008F09ECE8C2FD9
:1022B0008F710E942B1699CE063008F096CEF7CF7C
:1022C0008C2F8F71112369F20E94E7158ECE8C2F0F
:1022D0008F711123C9F3C5CF112329F08C2F8F7172
:1022E0000E94D21582CE0E94CD157FCE81E00E9441
:1022F0002E18023008F479CE82E00E942E1875CE96
:10230000002359F0D93309F0E9CE8FEF97EEE3E0DF
:1023100081509040E040E1F7DFCE8C2F8F71A1CF4C
:102320004C2F4F706D2FC6010E9461030E94FD1457
:102330005CCE4C2F4F706D2FC6010E94640355CEAA
:10234000DF91CF911F910F91FF90EF90DF90CF9091
:10235000BF9008950F931F93CF93DF93EC01688193
:1023600079818A810E9423178C010E9482160E9423
:102370008415B801CE01DF91CF911F910F910C947C
:10238000940FCF93DF93EC018B819C81892B29F0F3
:102390008881998189238F3F59F4DF91CF910895E6
:1023A000CE010E94AA11CE01DF91CF910C94E102DF
:1023B000CE010E9402038111F3CF0E94651788238A
:1023C00061F38A81882349F382E0DF91CF910C94F5
:1023D0002E1890E080E00E94AF0D90E080E00E9417
:1023E000C50D0E94AD170E94BD170E94DD170E9407
:1023F000CC090C94A5080E9455170C94E9110E9471
:102400009D170C94FB11E92FE295EF70E250EE302E
:1024100070F4F0E0E255FE4D0C944021803F19F03D
:1024200020F4883E20F481E00895843FE1F380E0C9
:102430000895883EC0F3813FD1F7F5CF93FB8827FD
:1024400080F908950E9419170C940312CF93DF931B
:1024500000D000D00F92CDB7DEB70F900F900F9045
:102460000F900F90DF91CF910895CF93DF9300D01D
:1024700000D000D0CDB7DEB726960FB6F894DEBFF9
:102480000FBECDBFDF91CF9108951F93CF93DF9300
:10249000C091D00116E08091D1018C1304C0DF916E
:1024A000CF911F910895D0E01C9FF0011D9FF00D6A
:1024B0001124EE52FE4F40815181628173818481EB
:1024C00095810E9435122196C770E5CF4091020296
:1024D00050910302609104027091050280910602FE
:1024E000909107020C9435121F93CF93DF93809144
:1024F0000702807FA9F480910402882389F08091EB
:10250000D001C091D1016091020270910302A091AB
:102510000502B0910602D62FD72316E0C81304C0D7
:10252000DF91CF911F91089590E0109711F0DF3F58
:1025300019F401968770F2CF189F9001199F300D02
:102540001124F901EE52FE4F41814713F2CF408131
:102550004613EFCF42814111ECCF438154814A1B96
:102560005B0B483C510528F7809107028F70806112
:1025700080930702F901E952FE4F80818F708061DC
:10258000808382E092E00E94C111DF91CF911F9180
:102590000C944512AF92BF92CF92DF92EF92FF92CE
:1025A0000F931F93CF93DF93CDB7DEB761970FB62D
:1025B000F894DEBF0FBECDBF8C0185E0F801DE01CF
:1025C0001D9601900D928A95E1F7F80140815181A5
:1025D000E28082E0C82E82E0D82E609105027091E0
:1025E00006026115710509F44FC190910202209114
:1025F0000302892F82238F3F09F446C1A380B48050
:10260000F0900402F501E61BF70BFF2009F40AC164
:1026100080910702382F307FE83CF10508F0C0C0F8
:10262000311179C0FE2C251323C0941321C0E11071
:102630001FC08F708061809307020E946612C601DE
:102640000E94C11180910702F80185838F2D619648
:102650000FB6F894DEBF0FBECDBFDF91CF911F91B3
:102660000F91FF90EF90DF90CF90BF90AF900895C3
:10267000AB2829F0842F85238F3F09F021C180E00A
:10268000F82FF170DF2E80FF3CC08091D0012091A7
:10269000D10136E0821315C04D875E878D859E85FA
:1026A0000E941917292F22952F702230F0F0243024
:1026B00018F59F70F1F0F8019581907FD1F4D12C3D
:1026C0001EC090E0389FF001399FF00D1124EE52AA
:1026D000FE4F6181651306C06081641303C062818F
:1026E0006E110FC001968770D5CF9F7011F08823AF
:1026F00031F3805E883018F3C8010E94C111FD2CAF
:10270000A5CFEE2009F4A2CF8091070281608093CB
:102710000702F12C9BCF251314C0941312C0E110B3
:1027200010C0F8018583C8010E94C11186E0F8013C
:10273000A2E0B2E001900D928A95E1F70E94661244
:1027400085CF4D875E878D859E850E9422128823C6
:1027500019F1EE2009F180910702803270F020918A
:1027600002023091030238872F831986BB86AA861E
:102770008C87CE0107960E94C11186E0F801A2E085
:10278000B2E001900D928A95E1F70E9474120E94C6
:102790006612FF24F3945ACFC8010E94C111F9CFE9
:1027A000311113C07A2DB98AA88A6E2D89890E94A9
:1027B000261282E092E00E94C11186E0F601119299
:1027C0008A95E9F70E946612A4CF25130FC09413CF
:1027D0000DC0E1100BC0F8018583C8010E94C11132
:1027E00086E0F60111928A95E9F730CF4D875E8732
:1027F0008D859E850E942212882371F2EE2061F25F
:1028000080910702803208F4B8CF20910202309103
:1028100003023A8329831B82BD82AC828E83CE0160
:102820000196A9CFE83CF10510F5FE2CEE2009F445
:10283000B3CF25130BC0941309C086E0F801A2E0C2
:10284000B2E001900D928A95E1F700CF4D875E8747
:102850008D859E850E94221281118FCF8091070263
:10286000816080930702C8010E94C111EFCE7A2DCA
:10287000B98AA88A6E2D89890E94261286E0F601FF
:1028800011928A95E9F75ACFEE2009F485CF4D874A
:102890005E878D859E850E942212F82E882309F47A
:1028A0007BCF86E0F801A2E0B2E001900D928A951C
:1028B000E1F782E092E00E94E50E0E9474123ECFA2
:1028C00081E08E25DDCE1F93CF93DF93CDB7DEB7AA
:1028D0002C970FB6F894DEBF0FBECDBF4F8358873D
:1028E00069877A878B879C87CE0107960E94CA12D8
:1028F000882369F08A859B85892B39F04F8158851B
:10290000842F85238F3F09F071C016E05FC086E0F9
:10291000FE013796DE01119601900D928A95E1F73E
:102920008A859B85892B89F38F81988589238F3FA1
:1029300061F32091D10130E0C90101968770992798
:102940004091D0014817190671F40E94FF111092AE
:10295000D1011092D00186E0E2E0F2E0DF011D92A9
:102960008A95E9F7D2CF96E0929FD001939FB00D60
:102970001124AE52BE4FFE01319601900D929A95F0
:10298000E1F78093D1010E944512BFCF819FC00122
:1029900011248E529E4F0E94CA128823E9F0E091C2
:1029A000D0011E9FF0011124EE52FE4F4081518153
:1029B00062817381848195810E9435128091D0015A
:1029C00090E00196877099278093D0018091D00183
:1029D0009091D1018913DACF2C960FB6F894DEBF0F
:1029E0000FBECDBFDF91CF911F91089569857A8584
:1029F0008B859C850E94351288CFEF92FF920F93B2
:102A00001F93CF93DF938C01892B81F0F12CEE245F
:102A1000E394E8012196F8018491843770F48430BE
:102A200008F05FC08130B1F08230A1F1DF91CF9129
:102A30001F910F91FF90EF900895853709F44CC0D6
:102A400008F43DC09CE7980F903780F78F770E947D
:102A5000380F49C00E5F1F4FFE01849190E2980F1E
:102A6000983060F48770FE2D01C0FF0F8A95EAF759
:102A70008F2F0E94B0170E94DD1702C00E94EA0E3D
:102A80008F2D815030F2EFE9FFE03197F1F700C070
:102A90000000F7CF0E5F1F4FFE01849190E2980F68
:102AA000983050F48770FE2D01C0FF0F8A95EAF729
:102AB0008F2F0E94B617DFCF0E94380FE1CF0E5F35
:102AC0001F4FFE01C491C150D8F28FE99FE00197DA
:102AD000F1F700C00000F7CF0E5F1F4FFE01F4902A
:102AE000CFCF0E94EA0E8E01CBCF08950C947515BE
:102AF0000E9476156093390270933A0280933B02EC
:102B000090933C020C94E91108950C9478150F935E
:102B10001F930091390210913A0220913B023091AB
:102B20003C02602B712B822B932B1F910F910C94E5
:102B300078150F931F930091390210913A0220915A
:102B40003B0230913C0260237123822393231F9127
:102B50000F910C9478150F931F93009139021091E7
:102B60003A0220913B0230913C0260277127822774
:102B700093271F910F910C9478150C9475150C9454
:102B8000BD150E94BF156093350270933602809385
:102B90003702909338020C94E91160E070E0CB01A9
:102BA0000C94C1150F931F9341E050E060E070E07A
:102BB0008A019B0104C0000F111F221F331F8A9539
:102BC000D2F7C901B8011F910F910C94C1150F9351
:102BD0001F9341E050E060E070E004C0440F551FD7
:102BE000661F771F8A95D2F7809135029091360241
:102BF000A0913702B09138028A019B01082B192B52
:102C00002A2B3B2BC901B8011F910F910C94C115C0
:102C10000F931F9341E050E060E070E004C0440F68
:102C2000551F661F771F8A95D2F7CB01BA016095B1
:102C30007095809590950091350210913602209103
:102C400037023091380260237123822393231F912E
:102C50000F910C94C1150F931F9341E050E060E079
:102C600070E004C0440F551F661F771F8A95D2F786
:102C70008091350290913602A0913702B0913802CE
:102C80008A019B01082719272A273B27C901B80178
:102C90001F910F910C94C1150F931F930091350252
:102CA000109136022091370230913802602B712B3F
:102CB000822B932B1F910F910C94C1150F931F938F
:102CC000009135021091360220913702309138027E
:102CD00060237123822393231F910F910C94C115BC
:102CE0000F931F9300913502109136022091370205
:102CF0003091380260277127822793271F910F9107
:102D00000C94C115089527E0929F800D1124982FEF
:102D1000977041E001C0440F9A95EAF78695869531
:102D2000869595E0899FF0011124E85FFD4F90E0C2
:102D300080E070E05191DF0111979B01082E02C0E5
:102D4000369527950A94E2F72170219525272423AB
:102D500025272C9301968530910561F7089527E08A
:102D6000929F800D1124982F977086958695869551
:102D700025E0829FF0011124E85FFD4F50E040E024
:102D800080E0219130E0092E02C0369527950A9403
:102D9000E2F721703327042E01C0220F0A94EAF7CC
:102DA000822B4F5F5F4F4530510559F70895BF9211
:102DB000CF92DF92EF92FF920F931F93CF93DF9307
:102DC0008C01C0903502D0903602E0903702F0902E
:102DD00038028091390290913A02A0913B02B09161
:102DE0003C02C82AD92AEA2AFB2ACFE1D0E0BC2E2D
:102DF000D701C6010C2E04C0B695A7959795879567
:102E00000A94D2F780FD0EC0219788F7B12C8B2D44
:102E1000DF91CF911F910F91FF90EF90DF90CF90B6
:102E2000BF900895B8018C2F0E948103019761F330
:102E3000EECFCF93DF93EC010E94D716BE01DF9156
:102E4000CF910C9481031F93CF93DF93EB0190916B
:102E5000CF01992331F0CB01DF91CF911F910C94D9
:102E60001917882379F0CB010E94D716182F682FE5
:102E7000CE010E948316BE01812FDF91CF911F9159
:102E80000C948103CB010E94AF16182FF4CF682F4A
:102E900080911101909112010C944019682F80913A
:102EA0001101909112010C9442198091110190919D
:102EB00012010C94441980913D0285958595859564
:102EC000089580913D028770089590913D0297701A
:102ED00081E009F480E008959091570292FB222747
:102EE00020F9281751F080FB92F9909357028091B6
:102EF0005602909157020C946D18089580915702D4
:102F000082FB882780F991E089270C946C1781E077
:102F10000C946C1780E00C946C1780914902089512
:102F200090914902892B8093490208958095909150
:102F300049029823909349020895109249020895F6
:102F400090914802892B8093480208958095909132
:102F500048029823909348020895109248020895D9
:102F600090914702892B8093470208958095909114
:102F700047029823909347020895109247020895BC
:102F800080913E02089508950C94C31790915702C2
:102F900092FD08C090913E02981721F080933E0266
:102FA0000C94C417089580913E02882329F0109252
:102FB0003E0280E00C94C4170895E0911101F09155
:102FC0001201809149028083E0911101F091120178
:102FD000808190914802892B8083E0911101F091CA
:102FE0001201808190914702892B808390913E024B
:102FF000992381F0E0911101F09112018081892BD8
:10300000808380911101909112010E94F818811122
:103010000E94D31780911101909112010C94960D8A
:1030200008950C9410189091570292FD10C098E0EA
:10303000899F90011124622B60933D020E94E71545
:1030400080913D028595859585950C9411180C9479
:10305000E71510923D0280E00C94111890913D020A
:103060008095892380933D02282F277039F4282FDB
:10307000082E000C330B9217130621F4909157027F
:1030800092FF07C08595859585950E9408160C943A
:103090002918089580E0089590E080E00E94622160
:1030A00021E08A3E9E4F09F020E0822F089582E0C1
:1030B00090E00C945A2183E090E00C945A21CF9335
:1030C00084E090E00E945A21C82F82E290E00E94A2
:1030D0005A21982F8C2FCF910895CF93C92F682F05
:1030E00084E090E00E9468216C2F82E290E0CF9112
:1030F0000C946821AB01BC018FE090E00C947A2124
:10310000AB01BC0183E190E00C947A2160E070E0B7
:10311000CB010C94801860E070E0CB010E947A181B
:103120000C9486186AEE7EEF90E080E00E94862183
:1031300060E082E090E00E94682160E083E090E03F
:103140000E9468211092390210923A0210923B02BA
:1031500010923C0260E084E090E00E94682160E010
:1031600082E290E00E94682160E085E090E00E94A9
:10317000682160E086E090E00E9468216FEF87E0C0
:1031800090E00E94682140E050E0BA0188E090E0C1
:103190000E947A2160E08DE090E00E94682140E08A
:1031A00050E0BA0188E190E00E947A2160E087E176
:1031B00090E00E94682140E050E0BA018CE190E08C
:1031C0000E947A2170E060E080E290E00E94862117
:1031D00040E050E0BA0188E190E00E947A210C942E
:1031E0008B180C949218682F8EE090E00C94682154
:1031F0009C012E5F3F4FAC01485F5F4F80E024177A
:10320000350709F40895F90191919F019923B9F3C4
:103210008F5FF5CF662349F0FC0132960896219125
:10322000261729F0E817F907D1F780E0089581E023
:1032300008959C01FC0132969FEF80E04191461772
:1032400051F09F3F19F4411101C0982F8F5F8630D4
:10325000A9F79F3F09F40895290F311D97FD3A956D
:10326000F90162830895FC01329608962191261394
:1032700003C0DF0111971C92E817F907B9F7089509
:103280000C9419190C943319029626E0FC01119242
:103290002A95E9F70895089508950C944C198091A2
:1032A0007A02843049F10E944D1980E00E9459034E
:1032B00010924B0288E190E020E40FB6F894A895B4
:1032C000809360000FBE2093600083B7817F84608D
:1032D00083BF83B7816083BF7894889583B78E7FDF
:1032E00083BF0FB6F894A8958091600088618093A1
:1032F0006000109260000FBE08950895CF930E9461
:103300004B190E946B060E947D19C0E08C2F0E9411
:103310009705811105C0CF5FCA30C1F7CF910895DD
:1033200081E0FCCF08950C9492190E94FF110E9435
:103330008A0D0E9459030C9493191F921FB61F9275
:1033400011248F939F93AF93BF9380914B02811170
:1033500013C080916E0290916F02A0917002B091A3
:1033600071024196A11DB11D80936E0290936F0270
:10337000A0937002B0937102BF91AF919F918F9112
:103380001F901FBE1F90189582E084BD93E095BDED
:103390009AEF97BD80936E0008952FB7F8948091AF
:1033A0006E0290916F02A0917002B09171022FBFD6
:1033B00008952FB7F89460916E0270916F0280911A
:1033C0007002909171022FBF08959C014FB7F8943D
:1033D00080916E0290916F02A0917002B091710283
:1033E0004FBF821B930B089578941F921FB61F92B4
:1033F00011248F939F93AF93BF9380916E0290910E
:103400006F02A0917002B09171020196A11DB11DD1
:1034100080936E0290936F02A0937002B09371023A
:10342000BF91AF919F918F911F901FBE1F901895D4
:10343000109272021092730210927402109275022E
:103440000895CF92DF92EF92FF926B017C010E9470
:10345000240781110EC00E94D919C61AD70AE80A9A
:10346000F90AC0927202D0927302E0927402F09252
:103470007502FF90EF90DF90CF9008950F931F9308
:103480000E942407882321F01F910F910C94D919D1
:103490000E94D91900917202109173022091740256
:1034A00030917502600F711F821F931F1F910F9142
:1034B000089587E797E7909301088093000888E1D3
:1034C0009AE00FB6F894A895809360000FBE909391
:1034D0006000FFCF909393018093920108958091B3
:1034E00054020895CF93DF9300D00F92CDB7DEB78B
:1034F00090917A02943019F589837B836A8382E004
:103500008093E9008FEF9091E800815095FD06C00F
:1035100095ED9A95F1F700008111F5CF8091E800C3
:1035200085FF0DC050E040E063E070E0CE01019601
:103530000E94891C8091E8008E778093E8000F90AC
:103540000F900F90DF91CF910895BC0184E00C940F
:10355000721ABC0183E00C94721A9C0182E0809381
:10356000E9009FEF8091E800915085FD06C085ED50
:103570008A95F1F700009111F5CF8091E80085FF61
:103580000CC050E040E066E070E0C9010E94891C78
:103590008091E8008E778093E8000895CF93DF93C1
:1035A000EC0181E08093E9008FEF9091E800815079
:1035B00095FD06C095ED9A95F1F700008111F5CFC4
:1035C0008091E80085FF14C050E040E068E070E0C2
:1035D000CE010E94891C8091E8008E778093E800DC
:1035E00088E0FE01ACE4B2E001900D928A95E1F72B
:1035F000DF91CF91089580917902811109C00E94D5
:10360000191E0E94761E8091E20084608093E20081
:10361000089510927902089508950895089542E05A
:1036200061EC81E00E94951D42E261EC82E00C9425
:10363000951D80917C02833009F45FC030F48130A5
:10364000C1F1823009F49BC008958A3009F487C023
:103650008B3009F46DC0893009F04EC080917B0237
:10366000813209F049C080917F02909180020297D7
:1036700008F042C08091E800877F8093E800809145
:10368000E80082FF35C09091F3008091F20002972C
:1036900029F48091F1008B7F813021F48091F10039
:1036A000809354028091E8008B778093E8000C941B
:1036B000C91D80917B02813AF9F48091E800877FEF
:1036C0008093E80080917F0290918002892B61F4C1
:1036D00068E08CE492E070E00E94D81C8091E800E1
:1036E0008B778093E800089560E090E080E0F3CF6E
:1036F00080917A028111C3CF089580917B02813A33
:10370000D9F780917F0290918002892BA9F780914F
:10371000E800877F8093E8008091E80080FFFCCF7D
:1037200080911D018093F1008091E8008E77BDCFDC
:1037300080917B02813201F780917F02909180021B
:10374000892BD1F68091E800877F8093E8000E9462
:10375000C91D80917D0280931D010C94FF11809101
:103760007B02813249F68091E800877F8093E800F0
:103770000E94C91D80917E02809355020895809118
:103780007B02813A09F0B8CF8091E800877F80936F
:10379000E8008091E80080FFFCCF80915502C2CF05
:1037A00084B7877F84BF0FB6F894A8958091600096
:1037B000886180936000109260000FBE80E890E006
:1037C0000FB6F89480936100909361000FBE0E9441
:1037D000FC0D0E94191E0E94761E8091E2008460FA
:1037E0008093E20078940E94FF200E940E0E83E1F5
:1037F00091E00E94850D80917A02853099F00E94B7
:10380000160E0E940A0EF7CF0E944F19809178027F
:10381000882341F00E947E19882321F00E94731CA6
:103820000E94FF1180917A02853071F30E949519F0
:10383000E6CF0C941B1C292F33272330310519F1B7
:1038400068F42130310509F444C02230310509F40F
:1038500045C090E080E030E020E025C02132310515
:1038600049F122323105A9F780E490E02AE534E0FD
:1038700061157105C1F08BE790E02FED33E0613009
:10388000710589F0E6CF99278130910581F0009785
:1038900029F00297F1F6E8E6F3E002C0EEE8F3E083
:1038A000849190E09F01FA01318320830895E8E735
:1038B000F3E0F6CF89E090E024EA33E0611571058A
:1038C00091F389E090E02DEB33E06130710559F31D
:1038D000C0CF82E190E02DEC33E0E5CF8BE390E0C8
:1038E00022E933E0E0CF80E189BD82E189BD09B4FE
:1038F00000FEFDCF8091D8008F7D8093D80080910D
:10390000E00082608093E0008091E00081FDFCCFC8
:103910000895AF92BF92CF92DF92FF920F931F93C1
:10392000CF93DF936C01EB018A010E94E81DF82E12
:10393000811123C00115110539F0F80180819181B1
:10394000C81BD90BC80ED91EB12CA12C2097A9F0E9
:103950008091E80085FD22C08091E8008E778093F9
:10396000E80001151105A1F0F80180819181A80EF0
:10397000B91EB182A08285E0F82E8F2DDF91CF9104
:103980001F910F91FF90DF90CF90BF90AF9008955F
:103990000E94E81D8823D1F2F82EEFCFF601819125
:1039A0006F018093F1002197FFEFAF1ABF0ACECFCE
:1039B000FC01809181029091820286179707A0F006
:1039C0006115710529F49091E8009E779093E800C5
:1039D00090E06115710551F4911108C08091E800E3
:1039E00082FF34C080E00895BC01F2CF80917A025A
:1039F0008823C1F18530C1F18091E80083FD30C09A
:103A00008091E80082FDEACF8091E80080FFE1CF5D
:103A10008091F3002091F200382F6115710519F0A3
:103A20002830310558F091E02830310509F090E058
:103A30002091E8002E772093E800CBCF81918093EE
:103A4000F100615071092F5F3F4FE7CF80917A02FB
:103A5000882341F0853041F08091E80083FFBECF9C
:103A600081E0089582E0089583E00895FC0180914B
:103A700081029091820286179707A0F06115710567
:103A800029F48091E8008E778093E80090E061153A
:103A9000710551F4911108C08091E80082FF35C092
:103AA00080E00895BC01F2CF80917A028823C9F1A9
:103AB0008530C9F18091E80083FD31C08091E80034
:103AC00082FDEACF8091E80080FFE1CF8091F30092
:103AD0002091F200382F6115710519F02830310559
:103AE00058F091E02830310509F090E08091E8002D
:103AF0008E778093E800CBCF84918093F10031964C
:103B0000615071092F5F3F4FE6CF80917A02882381
:103B100041F0853041F08091E80083FFBDCF81E026
:103B2000089582E0089583E00895982F973028F053
:103B30008F708093E90081E008959093E900242F2D
:103B4000762F50E0981731F07091EC002091ED0045
:103B50005091F00021FD02C09F5FE8CF3091EB0053
:103B60003E7F3093EB003091ED003D7F3093ED00D0
:103B70003091EB0031603093EB007093EC002093B8
:103B8000ED005093F0002091EE0027FDE5CF80E09E
:103B9000089580917B0287FF13C08091E80082FF27
:103BA00006C08091E8008B778093E80004C0809184
:103BB0007A028111F2CF089580917A028823D9F395
:103BC0008091E80080FFF8CF8091E8008E77ECCFFD
:103BD0002091E4003091E50095E6A9012091EC00E8
:103BE000822F817020FF06C08091E80080FF06C010
:103BF00080E008952091E80022FD1AC080917A02A9
:103C0000882389F0853089F08091EB0085FD0FC015
:103C10002091E4003091E50042175307F9F29150EA
:103C2000E1F684E0089582E0089583E0089581E05C
:103C300008950E94871E0E948F1EE0EEF0E08081B2
:103C400081608083E8EDF0E080818F77808319BC0C
:103C5000A7EDB0E08C918E7F8C9380818F7E8083E6
:103C60001092790208950F931F93CF93DF930E94D0
:103C7000871E0E948F1EC8EDD0E088818F778883D1
:103C800088818068888388818F7D888319BC1092A1
:103C90007A0210927602109278021092770200EE69
:103CA00010E0F80180818B7F808388818160888328
:103CB00042E060E080E00E94951DE1EEF0E080814E
:103CC0008E7F8083E2EEF0E080818160808380815E
:103CD00088608083F80180818E7F80838881806105
:103CE0008883DF91CF911F910F910895E8EDF0E067
:103CF00080818F7E8083E7EDF0E08081816080832A
:103D000084E082BF81E0809379020C94331EE8ED59
:103D1000F0E080818E7F80831092E20008951092FF
:103D2000DA001092E10008951F920F920FB60F92E1
:103D300011242F933F934F935F936F937F938F93B0
:103D40009F93AF93BF93EF93FF938091E10082FF26
:103D50000BC08091E20082FF07C08091E1008B7F61
:103D60008093E1000E94FE208091DA0080FF19C05C
:103D70008091D80080FF15C08091DA008E7F8093FB
:103D8000DA008091D90080FF96C080E189BD82E190
:103D900089BD09B400FEFDCF81E080937A020E94C4
:103DA000FB1A8091E10080FF19C08091E20080FF42
:103DB00015C08091E2008E7F8093E2008091E20046
:103DC00080618093E2008091D80080628093D80067
:103DD00019BC85E080937A020E940D1B8091E1005E
:103DE00084FF2BC08091E20084FF27C080E189BD61
:103DF00082E189BD89B5982F917080FFFBCF8091BA
:103E0000D8008F7D8093D8008091E1008F7E8093D1
:103E1000E1008091E2008F7E8093E2008091E200D9
:103E200081608093E20080917602882309F449C082
:103E300084E080937A020E940E1B8091E10083FF50
:103E400029C08091E20083FF25C08091E100877F37
:103E50008093E10082E080937A0210927602809152
:103E6000E1008E7F8093E1008091E2008E7F80935D
:103E7000E2008091E20080618093E20042E060E035
:103E800080E00E94951D8091F00088608093F00092
:103E90000E940C1BFF91EF91BF91AF919F918F9169
:103EA0007F916F915F914F913F912F910F900FBE36
:103EB0000F901F90189519BC10927A020E94091B4E
:103EC00070CF8091E30087FD93E090937A02B3CFA7
:103ED0001F920F920FB60F9211242F933F934F937F
:103EE0005F936F937F938F939F93AF93BF93CF9382
:103EF000DF93EF93FF93D091E900DF708091EC00A6
:103F0000C82FC17080FDC0E81092E9008091F000D8
:103F1000877F8093F00078940E94AC1F1092E90094
:103F20008091F00088608093F000CD2BCF70C0931B
:103F3000E900FF91EF91DF91CF91BF91AF919F91F8
:103F40008F917F916F915F914F913F912F910F9042
:103F50000FBE0F901F9018951F93CF93DF93CDB78F
:103F6000DEB7AA970FB6F894DEBF0FBECDBF8BE7C2
:103F700092E02091F100FC012193CF01F2E083381F
:103F80009F07B9F70E94191B8091E80083FF1EC1AB
:103F900080917B0290917C029A3008F017C1E92F42
:103FA000F0E0E454FE4D0C944021803899F08238C2
:103FB00009F00CC180917F028F70873008F006C134
:103FC0008093E9008091EB0085FB882780F91092AF
:103FD000E90006C080917702909178029111826089
:103FE0009091E800977F9093E8008093F100109201
:103FF000F1008091E8008E77E5C0882309F4D3C0F2
:10400000823009F0E3C080917D028111D6C0809199
:104010007F028F702FEF280F263008F0D7C08093D3
:10402000E9002091EB0020FFC8C0933031F480916B
:10403000EB0080628093EB00C0C09091EB00906138
:104040009093EB0021E030E001C0220F8A95EAF75F
:104050002093EA001092EA008091EB008860EACF9A
:104060008111B4C010917D021F778091E3008078A8
:10407000812B8093E3008091E800877F8093E800A4
:104080000E94C91D8091E80080FFFCCF8091E30071
:1040900080688093E30082E0111183E080937A02CC
:1040A00095C08058823008F091C080917D02909137
:1040B0007E028C3D23E09207A1F583E08A838AE2A9
:1040C00089834FB7F894DE01139620E03EE051E279
:1040D000E32FF0E050935700E49120FF03C0E295F6
:1040E000EF703F5FEF708E2F90E0EA30C0F0C79620
:1040F0008D939D932F5F243159F74FBF8091E80036
:10410000877F8093E8006AE270E0CE0101960E940A
:10411000D81C8091E8008B778093E80057C0C09648
:10412000E7CF60917F0270918002AE014F5F5F4FD9
:104130000E94191CBC01892B09F448C09091E80029
:10414000977F9093E80089819A810E94361DE1CF84
:104150008038E1F58091E800877F8093E8008091C6
:1041600076028093F10045CF811130C090917D029D
:10417000923060F58091E800877F8093E80090930B
:1041800076020E94C91D80917602882311F084E096
:1041900005C08091E30087FDFACF81E080937A0229
:1041A0000E940F1B13C080917D02813079F481E061
:1041B000933009F080E0809378021092E9008091BA
:1041C000E800877F8093E8000E94C91D8091E80085
:1041D00083FF0AC08091E800877F8093E800809188
:1041E000EB0080628093EB00AA960FB6F894DEBFD6
:1041F0000FBECDBFDF91CF911F9108950895CF934A
:1042000080917A028823A1F0C091E900CF7090914B
:10421000EC00892F817090FD80E8C82B1092E90096
:104220008091E80083FD0E94AC1FCF70C093E9002D
:10423000CF9108950E94191E10927A020895E8ED18
:10424000F0E08081806180838AE18A95F1F700C087
:104250008091D9008170089597FB072E16F4009481
:1042600007D077FD09D00E94462107FC05D03EF417
:10427000909581959F4F0895709561957F4F089512
:10428000EE0FFF1F0590F491E02D0994AA1BBB1BB4
:1042900051E107C0AA1FBB1FA617B70710F0A61B46
:1042A000B70B881F991F5A95A9F780959095BC0167
:1042B000CD010895F999FECF92BD81BDF89A992755
:1042C00080B50895A8E1B0E042E050E00C948E2162
:1042D000262FF999FECF92BD81BDF89A019700B4BF
:1042E000021639F01FBA20BD0FB6F894FA9AF99A5F
:1042F0000FBE08950396272F0E9469210E9468210E
:10430000252F0E946921242F0C9469210196272FC3
:104310000E9469210C946821DC01CB01FC01F99910
:10432000FECF06C0F2BDE1BDF89A319600B40D9201
:1043300041505040B8F70895F894FFCFC80FC80F08
:104340002010201072108E10F50FF50F9910251106
:10435000341134119011F50FF50F99110E120E1240
:104360001712171219121712171217120E120E1215
:104370001E12171217121E12D51FFD1FE620FD1F59
:0C438000E62030205120E620A820B420C8
:10438C00012808641E140A321EAA0104AB0105AFF1
:10439C00013F026F1ACE1AAD1AA91AA51A01E20032
:1043AC00E900EA00B500B600B700CD008301CC00EF
:1043BC008A01920194012102230224022502260281
:1043CC0027022A02B300B4006F007000818283F4CC
:1043DC00F5F6F7313332946697C6340000000000CE
:1043EC00E200E900EA00B500B600B700CD00830199
:1043FC00CC008A019201940121022302240225029D
:10440C00260227022A02B300B4006F0070008182DA
:02441C0083001B
:00000001FF
